:100000000C9446000C9465000C94A8030C946500B5
:100010000C9465000C9465000C9465000C946500CC
:100020000C9465000C9465000C9465000C946500BC
:100030000C9465000C9465000C9465000C945A09AE
:100040000C9465000C9465000C9465000C9465009C
:100050000C9465000C9465000C9465000C9465008C
:100060000C9465000C9465000C9465000C9465007C
:100070000C9465000C9465000C9429030C946500A5
:100080000C9465000C9465000C94650011241FBE4F
:10009000CFEFD0E1DEBFCDBF11E0A0E0B1E0EAE9F3
:1000A000F6E100E00BBF02C007900D92A833B10744
:1000B000D9F711E0A8E3B1E001C01D92AC37B10758
:1000C000E1F70E9467000C944C0B0C940000CF9356
:1000D000DF93CDB7DEB724970FB6F894DEBF0FBE1F
:1000E000CDBFF8940E94C1000E944C050E94D3032A
:1000F0000E94370981E090E00E948F010E9426064D
:100100001C821B8213C01A82198205C089819A81C0
:1001100001969A83898389819A8123E082359207A7
:10012000ACF38B819C8101969C838B838B819C811A
:1001300023E0883E92073CF310923A011092390175
:10014000789460E070E081E40E94ED0060E070E08F
:1001500082E40E94ED0064E482E30E94350680910F
:100160003B0190913C018130910531F464E482E4DB
:100170000E9435060E946A0964E482E30E94350603
:10018000EECFCF93DF93CDB7DEB7A7E3B0E0E7E3E1
:10019000F0E0808180668C93EFE4F0E080EA808379
:1001A000ECE4F0E011821082EEE4F0E082E1808382
:1001B000E6E4F0E080E197E291838083EAE4F0E016
:1001C0008EEE92E091838083E8E4F0E08EEE92E0A0
:1001D00091838083DF91CF910895CF93DF93CDB743
:1001E000DEB723970FB6F894DEBF0FBECDBF89836D
:1001F0007B836A838981813421F08981813609F08A
:100200003FC08A819B819923E4F0EAE4F0E02A81EF
:100210003B818AEF90E0AC01249FC001259F900DA7
:10022000349F900D112424E630E0B9010E94390B6F
:10023000CB019C018EEE92E0821B930B9183808315
:100240001FC08A819B81909581959F4F9B838A8354
:10025000EAE4F0E02A813B818AEF90E0AC01249F40
:10026000C001259F900D349F900D112424E630E0AD
:10027000B9010E94390BCB0182519D4F918380833C
:100280008981823421F08981823609F03FC08A81D8
:100290009B819923CCF0E8E4F0E02A813B818AEF4E
:1002A00090E0AC01249FC001259F900D349F900DDC
:1002B000112424E630E0B9010E94390BCB018251B0
:1002C0009D4F9183808322C08A819B8190958195E7
:1002D0009F4F9B838A83E8E4F0E02A813B818AEF89
:1002E00090E0AC01249FC001259F900D349F900D9C
:1002F000112424E630E0B9010E94390BCB019C01A6
:100300008EEE92E0821B930B9183808323960FB62F
:10031000F894DEBF0FBECDBFDF91CF910895CF938C
:10032000DF93CDB7DEB722970FB6F894DEBF0FBECE
:10033000CDBF9A83898389819A810097E1F4ABE2EA
:10034000B0E0EBE2F0E080818C93AAE2B0E0EAE278
:10035000F0E0808188618C93A5E9B0E0E5E9F0E008
:10036000808185608C93E0E9F0E01082E9E2F0E0C2
:1003700083E3808320C089819A8181309105D9F4FB
:10038000ABE9B0E0EBE9F0E080818C93AAE9B0E062
:10039000EAE9F0E0808188698C93ADE9B0E0EDE9AD
:1003A000F0E0808185608C93E8E9F0E01082E9E973
:1003B000F0E083E3808322960FB6F894DEBF0FBE91
:1003C000CDBFDF91CF910895CF93DF93CDB7DEB747
:1003D00023970FB6F894DEBF0FBECDBF9A838983F3
:1003E0006B8389819A81009769F4EBE2F0E0808168
:1003F0009927807290700097C1F3ECE2F0E08B8156
:10040000808311C089819A818130910561F4EBE983
:10041000F0E080819927807290700097C1F3ECE939
:10042000F0E08B81808323960FB6F894DEBF0FBE79
:10043000CDBFDF91CF910895CF93DF93CDB7DEB7D6
:10044000A3970FB6F894DEBF0FBECDBF9B8F8A8FE8
:100450007D8F6C8F2DB73EB73BA32AA38DB79EB778
:100460009F8F8E8F1E821D8205C08D819E81019679
:100470009E838D838D819E819C018C8D9D8DF90144
:10048000E80FF91F8081882381F78D81825F8C833B
:100490008EE789871A868C818B8780E18C871D8601
:1004A0001E8683E18F8782EA888B198A80E48A8B93
:1004B0001B8A84EC8C8B8AE28D8B1E8A1F8A188E95
:1004C000198E8C81992704962DB73EB7281B390BBE
:1004D0000FB6F8943EBF0FBE2DBF8DB79EB70196E5
:1004E00099A388A388A199A1009699A388A328A17C
:1004F00039A138872F831E821D8215C04D815E81F0
:100500002D813E81CE010996FC01E20FF31F20816F
:100510008F819885FC01E40FF51F20838D819E81DA
:1005200001969E838D838D819E818131910534F367
:1005300081E190E09E838D8316C04D815E812D8187
:100540003E818C8D9D8D820F931FFC0171972081C0
:100550008F819885FC01E40FF51F20838D819E819A
:1005600001969E838D838C8199279C012D5F3F4F3F
:100570008D819E818217930704F31B821A8283E088
:1005800090E09E838D8315C02D813E818F8198855B
:10059000FC01E20FF31F8081282F33278A819B8182
:1005A000820F931F9B838A838D819E8101969E83F8
:1005B0008D838C8199279C012D5F3F4F8D819E817A
:1005C000821793070CF38A8189838C8199279C0178
:1005D0002D5F3F4F8981482F40958F819885FC0181
:1005E000E20FF31F40831E821D8212C02D813E81C7
:1005F0008F819885FC01E20FF31F20818A8D9B8DEE
:10060000622F0E94E4018D819E8101969E838D83DD
:100610008C8199279C012C5F3F4F8D819E81821791
:10062000930724F38E8D9F8D0FB6F8949EBF0FBE57
:100630008DBF2AA13BA10FB6F8943EBF0FBE2DBFC0
:10064000A3960FB6F894DEBF0FBECDBFDF91CF915A
:1006500008951F920F920FB60F9211242F938F932C
:100660009F93EF93FF93CF93DF93CDB7DEB7809146
:10067000390190913A01ECE9F0E02081FC01E35C62
:10068000FE4F20838091390190913A01FC01E35C97
:10069000FE4F80818B3331F481E090E090933C01F8
:1006A00080933B018091390190913A01019690939A
:1006B0003A0180933901DF91CF91FF91EF919F91A2
:1006C0008F912F910F900FBE0F901F901895CF9381
:1006D000DF93CDB7DEB7A1E3B0E0E1E3F0E08081E6
:1006E00082608C93A2E3B0E0E2E3F0E090818DEFD2
:1006F00089238C93A9E5B0E0E9E5F0E090818DEFE6
:1007000089238C93AAE6B0E0EAE6F0E080818C6071
:100710008C93A8E5B0E0E8E5F0E0808182608C93FE
:10072000A9E5B0E0E9E5F0E0808182608C93DF919B
:10073000CF910895CF93DF93CDB7DEB7A2E3B0E0BA
:10074000E2E3F0E0808182608C93DF91CF910895A5
:100750001F920F920FB60F9211248F939F93AF9316
:10076000BF93EF93FF93CF93DF93CDB7DEB7A2E3B1
:10077000B0E0E2E3F0E090818DEF89238C93ABE36E
:10078000B0E0EBE3F0E0808180958C93DF91CF9136
:10079000FF91EF91BF91AF919F918F910F900FBEFD
:1007A0000F901F901895CF93DF93CDB7DEB7E1E69A
:1007B000F0E01082E2E6F0E01082E7E2F0E080E4B0
:1007C0008083E6E2F0E087EE8083DF91CF910895A9
:1007D000CF93DF93CDB7DEB721970FB6F894DEBF86
:1007E0000FBECDBF8983A7E2B0E0E7E2F0E08081F1
:1007F000982F80EE982389818770892B8C9321967E
:100800000FB6F894DEBF0FBECDBFDF91CF91089534
:10081000CF93DF93CDB7DEB7E6E2F0E08081992792
:10082000807190700097C1F3DF91CF910895CF93BD
:10083000DF93CDB7DEB7E4E2F0E080819181DF9114
:10084000CF910895CF93DF93CDB7DEB7A6E2B0E0A6
:10085000E6E2F0E0808180618C93DF91CF91089592
:10086000CF93DF93CDB7DEB725970FB6F894DEBFF1
:100870000FBECDBF8C836D838C810E94E8030E94E4
:1008800022040E9408040E9422041B821A821982F8
:1008900010C00E9408040E9417049C018A819B8159
:1008A000820F931F9B838A830E94220489818F5F1A
:1008B000898399818D81981760F38D81282F332743
:1008C0008A819B81B9010E94250BCB0125960FB629
:1008D000F894DEBF0FBECDBFDF91CF9108950F9387
:1008E0001F93CF93DF93CDB7DEB723970FB6F8945E
:1008F000DEBF0FBECDBF8A836B83198213C089818F
:10090000082F11276B8189810E9430049C01C80146
:10091000880F991FFC01E35AFE4F318320838981A0
:100920008F5F898399818A81981748F323960FB640
:10093000F894DEBF0FBECDBFDF91CF911F910F9115
:100940000895CF93DF93CDB7DEB7A2E2B0E0E2E245
:10095000F0E0808180678C93A3E2B0E0E3E2F0E016
:1009600090818FE889238C93DF91CF910895CF9365
:10097000DF93CDB7DEB721970FB6F894DEBF0FBE79
:10098000CDBF89838981813041F4A3E2B0E0E3E205
:10099000F0E0808180618C931DC08981823041F4B8
:1009A000A3E2B0E0E3E2F0E0808180628C9312C0C9
:1009B0008981833041F4A3E2B0E0E3E2F0E080819A
:1009C00080648C9307C0A3E2B0E0E3E2F0E08081B2
:1009D00080678C9321960FB6F894DEBF0FBECDBF13
:1009E000DF91CF910895CF93DF93CDB7DEB72197F5
:1009F0000FB6F894DEBF0FBECDBF898389818130E9
:100A000049F4A3E2B0E0E3E2F0E090818FEE8923C5
:100A10008C9320C08981823049F4A3E2B0E0E3E204
:100A2000F0E090818FED89238C9314C0898183300D
:100A300049F4A3E2B0E0E3E2F0E090818FEB892398
:100A40008C9308C0A3E2B0E0E3E2F0E090818FE88D
:100A500089238C9321960FB6F894DEBF0FBECDBFCD
:100A6000DF91CF910895CF93DF93CDB7DEB7219774
:100A70000FB6F894DEBF0FBECDBF89838981815048
:100A800064E00E94300421960FB6F894DEBF0FBEDA
:100A9000CDBFDF91CF910895CF93DF93CDB7DEB770
:100AA000E4E3F0E01082DF91CF910895CF93DF93DC
:100AB000CDB7DEB725970FB6F894DEBF0FBECDBF1A
:100AC00089838981282F33273D832C838C819D81C5
:100AD0008330910509F45EC02C813D8124303105BD
:100AE00084F48C819D8181309105A1F12C813D811F
:100AF000223031050CF03EC08C819D810097D1F0F1
:100B000096C02C813D812530310509F463C08C816C
:100B10009D81853091050CF44DC02C813D8126309E
:100B2000310509F467C08C819D818730910509F4F6
:100B300071C07DC0E3E3F0E08081992781709070FF
:100B4000882319F01B821A8276C021E030E03B83B3
:100B50002A8371C0E3E3F0E080819927827090706E
:100B6000009719F01B821A8266C081E090E09B8397
:100B70008A8361C0E3E3F0E08081992784709070FC
:100B8000009719F01B821A8256C021E030E03B83A7
:100B90002A8351C0E3E3F0E0808199278870907048
:100BA000009719F01B821A8246C081E090E09B8377
:100BB0008A8341C0E3E3F0E08081992780719070DF
:100BC000009719F01B821A8236C021E030E03B8387
:100BD0002A8331C0E3E3F0E080819927807290702E
:100BE000009719F01B821A8226C081E090E09B8357
:100BF0008A8321C0E3E3F0E08081992780749070BC
:100C0000009719F01B821A8216C021E030E03B8366
:100C10002A8311C0E3E3F0E0808188231CF41B8267
:100C20001A8209C081E090E09B838A8304C02FEF81
:100C30003FEF3B832A838A819B8125960FB6F894E8
:100C4000DEBF0FBECDBFDF91CF910895CF93DF936D
:100C5000CDB7DEB7EAE3F0E08FEF8083EBE3F0E0BF
:100C60008FEF8083DF91CF910895CF93DF93CDB73E
:100C7000DEB722970FB6F894DEBF0FBECDBF8983D3
:100C80006A838981813309F43DC08981843309F401
:100C900039C089818234B1F18981823699F18981A3
:100CA000843481F18981843669F189818C3451F1F0
:100CB00089818C3639F189818D3421F189818D3694
:100CC00009F189818E34F1F089818E36D9F08981DC
:100CD0008F34C1F089818F36A9F08981803591F0F8
:100CE0008981803779F08981813561F08981813707
:100CF00049F0ABE3B0E0EBE3F0E090818EEF8923C5
:100D00008C9307C0ABE3B0E0EBE3F0E0808181605F
:100D10008C938981853309F445C08981863309F430
:100D200041C08981823409F43DC08981823609F449
:100D300039C089818334B1F18981833699F1898100
:100D4000853481F18981853669F18981863451F153
:100D50008981863639F189818B3421F189818B36FD
:100D600009F189818C34F1F089818C36D9F089813F
:100D70008E34C1F089818E36A9F08981803591F059
:100D80008981803779F08981813561F08981813766
:100D900049F0ABE3B0E0EBE3F0E090818DEF892325
:100DA0008C9307C0ABE3B0E0EBE3F0E080818260BE
:100DB0008C938981823309F439C089818334B1F1FC
:100DC0008981833699F18981853481F189818536DC
:100DD00069F18981863451F18981863639F18981B9
:100DE0008B3421F189818B3609F189818C34F1F0C2
:100DF00089818C36D9F089818F34C1F089818F3611
:100E0000A9F08981803591F08981803779F08981D5
:100E10008A3561F089818A3749F0ABE3B0E0EBE3D2
:100E2000F0E090818BEF89238C9307C0ABE3B0E0B7
:100E3000EBE3F0E0808184608C938981813309F455
:100E400039C089818433B1F18981873399F18981EE
:100E5000813481F18981813669F18981863451F14A
:100E60008981863639F189818C3421F189818C36EA
:100E700009F189818D34F1F089818D36D9F089812C
:100E80008E34C1F089818E36A9F089818F3491F03A
:100E900089818F3679F089818A3561F089818A3735
:100EA00049F0ABE3B0E0EBE3F0E0908187EF89231A
:100EB0008C9307C0ABE3B0E0EBE3F0E080818860A7
:100EC0008C938981813381F18981833369F18981AF
:100ED000843351F18981853339F18981873321F157
:100EE0008981893309F189818B34F1F089818B36CD
:100EF000D9F089818D34C1F089818D36A9F089813D
:100F00008E3491F089818E3679F089818A3561F04D
:100F100089818A3749F0ABE3B0E0EBE3F0E0908100
:100F20008FEE89238C9307C0ABE3B0E0EBE3F0E0F6
:100F3000808180618C9389818133B1F18981823391
:100F400099F18981833381F18981873369F18981BD
:100F5000843451F18981843639F189818B3421F1CE
:100F600089818B3609F189818D34F1F089818D3643
:100F7000D9F089818035C1F089818037A9F08981D4
:100F80008F3491F089818F3679F08981813561F0D4
:100F90008981813749F0ABE3B0E0EBE3F0E0908189
:100FA0008FED89238C9307C0ABE3B0E0EBE3F0E077
:100FB000808180628C938981803369F1898181335A
:100FC00051F18981873339F18981833421F1898114
:100FD000833609F189818C34F1F089818C36D9F01E
:100FE00089818D34C1F089818D36A9F089818E3453
:100FF00091F089818E3679F089818F3461F0898111
:101000008F3649F0ABE3B0E0EBE3F0E090818FEB9B
:1010100089238C9307C0ABE3B0E0EBE3F0E0808181
:1010200080648C938A81843419F08A81843641F4F7
:10103000ABE3B0E0EBE3F0E080818F778C9307C007
:10104000ABE3B0E0EBE3F0E0808180688C93229624
:101050000FB6F894DEBF0FBECDBFDF91CF910895DC
:10106000CF93DF93CDB7DEB76D970FB6F894DEBFA1
:101070000FBECDBF98878F837A8769878F819885C8
:10108000009721F4E985FA8580E380831E821D8222
:101090008F8198859C838B838F81988527E280310F
:1010A000920784F58F81988543E0883E94070CF57C
:1010B0008F819885843691059CF48F8198858A303C
:1010C00091052CF08AE090E09F8B8E8B04C0E1E0CC
:1010D000F0E0FF8BEE8B4E895F89598F488F04C0FB
:1010E00084E690E0998F888FE88DF98DFB8FEA8FE9
:1010F00004C048EE53E05B8F4A8F8A8D9B8D9D8F95
:101100008C8F04C0E0E1F7E2FD8FEC8F4C8D5D8D9C
:101110005A83498395C08F81988529813A81B90185
:101120000E94390BCB019C838B838D819E819C0116
:1011300089859A85F901E80FF91FFD8BEC8B8B816E
:101140009C81009709F455C08B819C818130910569
:1011500009F44AC08B819C818230910509F43FC01B
:101160008B819C8183309105A9F18B819C81843096
:10117000910559F18B819C818530910509F18B8115
:101180009C8186309105B9F08B819C8187309105D7
:1011900069F08B819C818830910519F4F8E3FB8715
:1011A00002C029E32B874B854C8702C057E35C873D
:1011B0008C858D8702C096E39D87ED85EE8702C002
:1011C000F5E3FE872E852F8702C044E34F875F85B6
:1011D000588B02C083E3888B9889998B02C0E2E325
:1011E000E98BF989FA8B02C021E32A8B4A894B8B60
:1011F00002C050E35B8B2B89EC89FD8920838D81B4
:101200009E8101969E838D832B813C8189819A8169
:10121000A901489F9001499F300D589F300D11241E
:101220008F819885821B930B98878F8389819A8100
:101230002AE030E0B9010E94390BCB019A838983FF
:101240008F819885009709F066CF8D819E819C01E2
:1012500089859A85F901E80FF91F10826D960FB6FE
:10126000F894DEBF0FBECDBFDF91CF910895CF932D
:10127000DF93CDB7DEB7E3E5F0E01082A6E5B0E09E
:10128000E6E5F0E0808183608C93A7E5B0E0E7E5D8
:10129000F0E0808182608C93E3E5F0E08FE0808372
:1012A000E2E5F0E01082E1E5F0E08BE98083DF9198
:1012B000CF9108951F920F920FB60F921124CF93E2
:1012C000DF93CDB7DEB7DF91CF910F900FBE0F90B8
:1012D0001F901895CF93DF93CDB7DEB7AC970FB6BD
:1012E000F894DEBF0FBECDBF1C861B8613C02B85B6
:1012F0003C858B859C85FC01E35CFE4F4081CE01E3
:101300000D96FC01E20FF31F40838B859C850196AF
:101310009C878B872B853C858091390190913A0180
:101320002817390720F310923C0110923B011092CC
:101330003A01109239011A86198629853A85CE011B
:101340000D96FC01E20FF31F80818D3459F0298541
:101350003A85CE010D96FC01E20FF31F80818D3698
:1013600009F079C089859A8501969A878987898548
:101370009A859C012E5F3F4FCE010D96FC01E20F36
:10138000F31F808199278F70907098878F8389854C
:101390009A859C012D5F3F4FCE010D96FC01E20F17
:1013A000F31F808199278F7090709E838D8389852C
:1013B0009A859C012C5F3F4FCE010D96FC01E20FF8
:1013C000F31F808199278F7090709C838B832F816E
:1013D000388584E690E0289FA001299F500D389F12
:1013E000500D11248D819E819C01220F331FC90154
:1013F000880F991F880F991F820F931F9A01280F3A
:10140000391F8B819C81820F931F9A8389838985E1
:101410009A859C012F5F3F4FCE010D96FC01E20F94
:10142000F31F80818D3239F489819A81909581955D
:101430009F4F9A83898329853A85CE010D96FC01B9
:10144000E20FF31F8081282F89819A81BC01822FAE
:101450000E94ED00B3C029853A85CE010D96FC01AE
:10146000E20FF31F8081893459F029853A85CE0136
:101470000D96FC01E20FF31F8081893609F051C0FF
:1014800089859A8501969A87898729853A85CE012B
:101490000D96FC01E20FF31F8081893451F02985FC
:1014A0003A85CE010D96FC01E20FF31F808189364B
:1014B00071F489859A859C012F5F3F4FCE010D966F
:1014C000FC01E20FF31F80810E94B70477C02985D9
:1014D0003A85CE010D96FC01E20FF31F80818F3417
:1014E00051F029853A85CE010D96FC01E20FF31FDC
:1014F00080818F3671F489859A859C012F5F3F4FDB
:10150000CE010D96FC01E20FF31F80810E94F304CF
:1015100055C084E191E0BC0181E090E00E941C0292
:101520004DC029853A85CE010D96FC01E20FF31FCF
:1015300080818C3451F029853A85CE010D96FC01CD
:10154000E20FF31F80818C3691F589859A8501968B
:101550009A87898789859A859C012F5F3F4FCE01A5
:101560000D96FC01E20FF31F80818B3341F480E084
:1015700091E0BC0181E090E00E941C021FC08985BF
:101580009A859C012F5F3F4FCE010D96FC01E20F23
:10159000F31F8081482F29853A85CE010D96FC01E5
:1015A000E20FF31F8081642F0E94350607C087E297
:1015B00091E0BC0181E090E00E941C02AC960FB665
:1015C000F894DEBF0FBECDBFDF91CF910895CF93CA
:1015D000DF93CDB7DEB728970FB6F894DEBF0FBE06
:1015E000CDBF98878F831A8219821FC01E821D82E9
:1015F00012C01C821B8205C08B819C8101969C833A
:101600008B838B819C8184369105B4F38D819E817F
:1016100001969E838D838D819E81843691054CF346
:1016200089819A8101969A83898329813A818F8160
:10163000988528173907D4F228960FB6F894DEBF9C
:101640000FBECDBFDF91CF910895AA1BBB1B51E107
:1016500007C0AA1FBB1FA617B70710F0A61BB70B22
:10166000881F991F5A95A9F780959095BC01CD01C7
:10167000089597FB092E07260AD077FD04D0E5DFF1
:1016800006D000201AF4709561957F4F0895F6F703
:0A169000909581959F4F0895FFCFBC
:10169A00496E76616C6964204C454420436F6D6DD8
:1016AA00616E6400496E76616C6964204952204318
:1016BA006F6D6D616E6400496E76616C696420437A
:0816CA006F6D6D616E6400009C
:00000001FF
